:020000040000FA
:1000000000008A150A12372CF200030E8301F1005A
:100010000A088A01F000040883120317CE00831235
:1000200003130B11603081008A110A1288238A1190
:100030000A128A110A1257208A110A128A150A1204
:100040009B238A110A128A110A122D248A110A127C
:100050008A110A127B258A110A12033A031D4428C9
:100060008A150A1200208A110A128A150A12EF2133
:100070008A110A128A150A1257218A110A128A1144
:100080000A12EE268A110A128A150A12DC228A1135
:100090000A12831203174E08831203138400700898
:1000A0008A008301710E8300F20E720E0900143073
:1000B00083120313E7070318E80A6708143A031DBD
:1000C00064286808003A031D0E2A83120313E7010F
:1000D000E80183120313D6010330FF0083120313D8
:1000E00056088A150A122E268A110A128312031341
:1000F000D700D80157085E3ED9000030DA00003042
:100100000318580FDA0757085E3ED700580803183F
:10011000580F003ED800D70A0319D80A570883128F
:100120000313840083138312031358188317831255
:100130000313000883120313DB005908831203130F
:1001400084008313831203135A1883175B088312E6
:1001500003138000831203135608031DC9280430BB
:1001600083120313060583120313D9000310590CDD
:10017000DA000310DA0C5708831203138400831388
:1001800083120313581883175A088312031380002D
:100190000229831203135608013A031DE72802308F
:1001A00083120313060583120313D9000310590C9D
:1001B000DA00570883120313840083138312031396
:1001C000581883175A0883120313800002298312D8
:1001D00003135608023A031D022901308312031348
:1001E000060583120313D900DA005708831203139C
:1001F0008400831383120313581883175A08831239
:10020000031380000330FF008312031356088A157E
:100210000A122E268A110A1283120313D700D8015C
:1002200057085E3ED70000300318580F003ED80034
:1002300002305707D900DA01DA0D5808DA075908F1
:100240008312031384008313831203135A18831732
:1002500083120313000883120313DB0004305B02D4
:100260000318072A0130831203138A0040308312D7
:1002700003135B07031C3F29831203138A0A8200BE
:1002800044297F29A829E3298312031357088312DD
:1002900003138400831383120313581883178312E4
:1002A0000313000883120313DB005B08031D072AF6
:1002B00001305707DB00DC01DC0D5808DC075B0868
:1002C0008312031384008313831203135C188317B0
:1002D00083120313000883120313DD005D08031D5E
:1002E000072A59088312031384008313831203130C
:1002F0005A1883170130831203138000072A013034
:10030000831203135707DB00DC01DC0D5808DC0700
:100310005B088312031384008313831203135C1896
:10032000831783120313000883120313DD005D0893
:10033000031D072A590883120313840083138312B1
:1003400003135A1883170230831203138000072AFD
:100350008312031357088312031384008313831239
:10036000031358188317831203130008831203130F
:10037000DB00013A031D072A01305707DB00DC01CF
:10038000DC0D5808DC075B08831203138400831319
:10039000831203135C18831783120313000883125C
:1003A0000313DD00013A031D072A590883120313C2
:1003B00084008313831203135A18831703308312A4
:1003C00003138000072A83120313D70A0319D80ADC
:1003D00057088312031384008313831203135818DE
:1003E000831783120313000883120313DB00013AFF
:1003F000031D072A590883120313840083138312F1
:1004000003135A18831700308312031380008312DA
:100410000313D60A03305602031C6C28080083120B
:100420000313D2000330FF0052088A150A122E2649
:100430008A110A1283120313D300D40153085E3EBB
:10044000D2000030D50000300318540FD507023019
:10045000D2070318D50A52088312031384008313AA
:100460008312031355188317831203130008831292
:100470000313D30008008316031306088312031323
:10048000CD004D1104304D04831603138600060879
:1004900083120313CD00CD1002304D0483160313D5
:1004A0008600060883120313CD004D1001304D0461
:1004B00083160313860083120313CD010330FF005C
:1004C000831203134D088A150A122E268A110A1266
:1004D00083120313CE00CF014E085E3ED0000030E1
:1004E000D100003003184F0FD107500883120313B7
:1004F000840083138312031351188317013083126E
:1005000003138000831203134E085E3ED0000030B8
:10051000D1004F0803184F0FD107D00A0319D10A91
:10052000500883120313840083138312031351189A
:1005300083170130831203138000831203134E08C4
:100540005E3ECE004F0803184F0F003ECF00023032
:10055000CE070318CF0A4E088312031384008313B7
:10056000831203134F188317003083120313800084
:1005700083120313CD0A03304D02031C5E2A0800C8
:1005800083160313AF007F08B0000030FF00003077
:10059000EE220030FF000130EE22831603133008F4
:1005A000103EB00001300318013EB1003008831244
:1005B00003138400831383160313311883178312E4
:1005C0000313000888000130FF00831603132F086F
:1005D000EE22080083120317CB00080083160313D2
:1005E000AB007F08AC002B08AD000319FC2A2B08D8
:1005F000013A0319212B302B8312031305088316AC
:100600000313AB00AB122C0EF039AD000310AD0D8F
:100610002D08AE002B0483120313850008088316EF
:100620000313AB00AB13831203174B0C8316031396
:10063000AD01AD0C2D08AE002B048312031388000E
:10064000302B83120313050883160313AB002B1200
:100650002C0EF039AD00AC002B048312031385007F
:10066000080083160313A900AA01290803193D2BCA
:100670002908013A03194A2B542B20308312031303
:10068000050583160313A900290E0F39AA000310CC
:10069000AA0C542B10308312031305058316031381
:1006A000A900290E0F39AA00831603132A0808008F
:1006B00083160313A6007F08A7002608443EA60061
:1006C00001300318013EA80026088312031384009A
:1006D0008313831603132818831727088312031321
:1006E0008000080083160313A400443EA4000130D8
:1006F0000318013EA500240883120313840083130A
:1007000083160313251883178312031300080800A8
:10071000143083160313B2070318B30A3208143ACD
:10072000031D952B3308003A031DE32B8316031397
:10073000B201B3018A150A1229248A110A128316FA
:100740000313A200A30023080319AB2B2208013ACC
:100750000319BC2BE32B0030FF0000308A110A1272
:10076000EE228A110A120030FF0001308A110A12AB
:10077000EE228A110A12E32B831203174A08443E21
:1007800083160313A20001300318013EA3002208C0
:100790008312031384008313831603132318831710
:1007A000831203130008FF00831203174A08C022B4
:1007B000831203174A08013A031DE02BCA01E32BF9
:1007C00083120317CA0A080083160313A0008316B6
:1007D000031388010A30FF00831603132008C02288
:1007E000831603132008A1000319FB2B2008013AEC
:1007F00003190F2C222C83160313050883160313E9
:10080000A100DF3021058316031385000030FF00AF
:1008100000308A110A1258238A110A12222C8316D8
:100820000313050883160313A100EF302105831677
:10083000031385000030FF0001308A110A1258238B
:100840008A110A120030FF008316031320088A1150
:100850000A12EE228A110A120800143083160313BA
:10086000DF070318E00A5F08143A031D3A2C6008FA
:10087000003A031D742D83160313DF01E0011430C9
:1008800083160313E1070318E20A7B25831603137B
:10089000D800043058020318742D04308312031357
:1008A0008A005B30831603135807031C5A2C8312EB
:1008B00003138A0A82005F2C7E2C1B2D602D0030D2
:1008C0008A110A120F228A110A1283160313D80002
:1008D000033A0319772C01308A110A120F228A1168
:1008E0000A1283160313D800033A031D742D013036
:1008F0008D2583160313E101E201742D00308A1166
:100900000A120F228A110A1283160313D800033A1F
:10091000031DB52C752583160313D9007F08D80055
:100920000530D8070318D90A00305902031D9A2C44
:100930004C30580283160313DA01DA0D5A08031DEE
:10094000A62C5808FF0059087F25B02C00308316CC
:1009500003135A040319B02C4B30FF0000307F25DD
:1009600083160313E101E201742D01308A110A128A
:100970000F228A110A1283160313DA00033A031DA9
:10098000F22C752583160313DB007F08DA00FB3099
:100990005A07D800FF30D9005B0803185B0FD9074E
:1009A00000305902031DD62C23305802831603133E
:1009B000DA01031C5A145A08031DE32C5808FF00DF
:1009C00059087F25ED2C0030831603135A040319B0
:1009D000ED2C2330FF0000307F2583160313E10147
:1009E000E201742D00308A110A120F228A110A12B4
:1009F00083160313D8005808031D742D01308A1183
:100A00000A120F228A110A1283160313D8005808FB
:100A1000031D742D1330831603136202031D122D60
:100A200088306102031C742D02308D258316031358
:100A3000E101E201742D83160313E101E201752542
:100A400083160313D9007F08D8000A30FD00003058
:100A5000FE005808FF0059088A150A1216258A1147
:100A60000A1283160313D9007F08D800DA00FF00AA
:100A700000308A110A1258238A110A12752583162A
:100A80000313D9007F08D8000A30FD000030FE00B3
:100A90005808FF0059088A110A12AA278A110A1257
:100AA00083160313D9007F08D800DA00FF00013055
:100AB0008A110A1258238A110A1203308D25742DC7
:100AC000752583160313D9007F08D800DA00FE00CD
:100AD0000A30FF0000308A110A1297258A110A1283
:100AE00083160313E101E2010800831603135D0876
:100AF000FF005E080800831603135C0808008316D5
:100B00000313D7007F0883160313DD008316031336
:100B1000570883160313DE00080083160313DC0056
:100B200008008A110A128D258A110A1208008316FC
:100B30000313BE007F08BD007E08BF00C000C101D6
:100B4000BF0101303E05C200BF00C300C401C401A3
:100B50003D08C300C200C301C826831603133F0823
:100B60000319B52DA2307126B72DA030712683163A
:100B7000031342087126831603134008C40071262C
:100B8000BE2683160313C30A3D08FF003E08DC257A
:100B900083160313C400C500C60145084006031DA3
:100BA000D52D460841060319DB2D0A3083160313A1
:100BB0004302031CAC2D080083160313BA007F0800
:100BC000B900BB0101303A05BC00BB00BA013908CD
:100BD000BC00C826831603133B080319F22DA2306C
:100BE0007126F42DA0307126831603133C0871265C
:100BF000C826831603133B080319012EA330712660
:100C0000032EA130712601300D2683160313B9007F
:100C1000BE26831603133908080083160313B40095
:100C2000B50183120313871183160313071683126A
:100C300003130716073083160313B600831203133A
:100C40008715DA2683160313B70183120313071ED1
:100C50002C2E83160313B70A831603133708B80024
:100C60003608B61B3D2E003C0319462E831603138F
:100C7000B80D013E031C362E462E031083160313B7
:100C8000B81B0314B80C013E031C3D2E831603133E
:100C90003808B700B50483120313871183160313B2
:100CA000B6030314B61F0310031C1E2E8316031372
:100CB00007128316031334080319622E83120313D9
:100CC0000712652E831203130716DA268312031305
:100CD0008715DA2683120313871183160313350849
:100CE000080083160313B40083120313871107301F
:100CF00083160313B500831603133408B6003508B2
:100D0000B51B8C2E003C0319932E83160313B60CCF
:100D1000013E031C852E932E031083160313B60D7C
:100D2000013E031C8D2E8316031336080139B600CD
:100D3000360C03189E2E831203130712031CA32ED6
:100D4000831203130716831203138715DA268312FF
:100D50000313871183160313B5030314B51F031080
:100D6000031C7B2E831203130716DA268312031348
:100D70008715DA26831203138711080083120313E1
:100D800087150712DA26831203130716DA260800DE
:100D90008312031387150716DA268312031307122B
:100DA000DA2608008316031307128312031387152C
:100DB000071608000000000000000000000000000E
:100DC000000000000800C3308316031385000130C3
:100DD00086000130870088018901080014308312E1
:100DE0000317B1070318B20A3108643A031DFB2E3A
:100DF0003208003A031D8D2F83120317B101B2018F
:100E0000143083120317B3070318B40A8E27831212
:100E10000317AF0003302F0203188D2F0730831202
:100E200003138A001C30831203172F07031C1B2F88
:100E3000831203138A0A82001F2F3F2F702F831201
:100E40000317B301B4018A150A126B228A110A1220
:100E500083120317AF00013A031D312F013092278F
:100E60008D2F8A150A12D3218A110A1283120317B1
:100E7000AF00013A031D8D2F023092278D2F831270
:100E800003173308E83A031D622F3408033A031DA1
:100E9000622F013083120317B5068312031306086D
:100EA00083120317AF002F1283120317350EF03988
:100EB000831203172F048312031386008312031770
:100EC000B301B4018A150A12D3218A110A128312BE
:100ED0000317AF00013A031D8D2F023092278D2F8B
:100EE00083120317B301B40183120313060883129C
:100EF0000317AF002F1210302F0483120313860044
:100F00008A150A126B228A110A1283120317AF0084
:100F1000013A031D8D2F0130922708008312031719
:100F20003008080083120317B0000800831203176B
:100F3000AE008A110A1292278A110A12831603132D
:100F4000060883120317AE00EF302E058316031335
:100F50008600080083120317A6007F08A5007E08FC
:100F6000A8007D08A700A901AA010130AB00AC01CF
:100F700027082804031DC02FFF30FF00FF30F82F83
:100F80008312031727082808AD00AD1BCE2F0310CE
:100F9000A70DA80D0310AB0DAC0DC02F83120317C6
:100FA0002B082C040319F32F28082602031DDA2F1F
:100FB00027082502031CEA2F831203172B08A90711
:100FC0002C0803182C0FAA072708A5022808031CC1
:100FD000280FA602031083120317A80CA70C0310F6
:100FE000AC0CAB0CCE2F831203172908FF002A0884
:100FF00008000A3400340034003400340034003473
:10100000143083120313CA070318CB0A4A08643A40
:10101000031D0D284B08003A031D73288312031388
:10102000CA01CB0102308A150A128D258A150A12CF
:1010300083120313B1007F08B0000310310CB3001A
:10104000300CB200831203134C08FE00831203130A
:101050003208FF003308022183120313CC0A4C0824
:101060000A3A031D7328CC017A20742083120313DB
:10107000B1007F08B0000A30FD000030FE003008EB
:10108000FF0031088A150A1216258A150A128312E2
:101090000313B1007F08B000B200FF0000308A11D6
:1010A0000A1258238A150A12742083120313B100FE
:1010B0007F08B0000A30FD000030FE003008FF005D
:1010C00031088A110A12AA278A150A1283120313F9
:1010D000B1007F08B000B200FF0001308A110A128F
:1010E00058238A150A120800831203134808FF00C8
:1010F0004908080083120313A301A201A401A5015A
:10110000A601A701831203132508803E803E031D1C
:101110008B280A3024020318BC28831203132608E4
:10112000343EAC000030AD0027080318270FAD0790
:101130002C088312031384008313831203132D18C6
:10114000831783120313000883120313AE00831264
:101150000313840A000883120313AF002E08A307A9
:101160002F0803182F0FA2070230A6070318A70A9B
:10117000A40A0319A50A82280A30FD000030FE00E7
:10118000831203132308FF0022088A110A12AA27D8
:101190008A150A1283120313C9007F08C8000800C9
:1011A00083120313A8000230FF0028088A150A12D0
:1011B0002E268A150A1283120313A900AA012908F0
:1011C000343EA8000030AB00003003182A0FAB07F4
:1011D00028088312031384008313831203132B182C
:1011E000831783120313000883120313A9008312C9
:1011F0000313840A000883120313AA002908FF00BE
:101200002A08080083120313A3007F08A2007E08A7
:10121000A4000230FF0024088A150A122E268A151F
:101220000A1283120313A500A6012508343EA40068
:101230000030A70000300318260FA70724088312E8
:1012400003138400831383120313271883172208C0
:10125000831203138000840A83120313230883126A
:1012600003138000080083120313A0000130A100C3
:101270002008003C0319422983120313A10D013EEB
:10128000031C3C29831203132109A00083160313B6
:10129000050883120313A0052108200483160313F5
:1012A00085008A150A12B0258A150A120800143022
:1012B00083160313D5070318D60A5508643A031D8D
:1012C00064295608003A031DD22983160313D50159
:1012D000D601D32183160313CD00CE004E08031987
:1012E00076294D08013A0319A529D2298A150A122F
:1012F00074208A150A1283160313CE007F08CD00CE
:101300008A110A1275258A150A1283160313D00052
:101310007F08CF000530CF070318D00A4E085002CF
:10132000031D94294D084F020318D2290130D721FB
:1013300083120313070883160313CD004D110430E5
:101340004D04831203138700D2298A150A127420D0
:101350008A150A1283160313CE007F08CD008A1166
:101360000A1275258A150A1283160313D0007F0806
:10137000CF00FB30CF07031CD00350084E02031DE3
:10138000C3294F084D020318D2290030D7218312F8
:101390000313070883160313CD00FB304D0583129A
:1013A00003138700080083160313540808008316EC
:1013B0000313D400080083160313CC008A150A1205
:1013C000D7218A150A1283160313070883160313FD
:1013D000CC00FB304C058316031387000800143043
:1013E00083160313D2070318D30A5208643A031D65
:1013F000FC295308003A031D6A2A83160313D201FD
:10140000D3016B2283160313C800C90049080319CE
:101410000E2A4808013A03193D2A6A2A8A150A1237
:1014200074208A150A1283160313C9007F08C800A6
:101430008A110A1275258A150A1283160313CB0026
:101440007F08CA00FB30CA07031CCB034B084902C4
:10145000031D2C2A4A08480203186A2A01306F2209
:1014600083120313070883160313C800C812203021
:1014700048048312031387006A2A8A150A1274200B
:101480008A150A1283160313C9007F08C8008A113F
:101490000A1275258A150A1283160313CB007F08DA
:1014A000CA000530CA070318CB0A49084B02031DBE
:1014B0005B2A48084A0203186A2A00306F22831206
:1014C0000313070883160313C800DF30480583128F
:1014D00003138700080083160313510808008316BE
:1014E0000313D100080083160313C7008A150A12DC
:1014F0006F228A150A128316031307088316031333
:10150000C700DF30470583160313870008008312E6
:1015100003179F007F089E0000308A110A12722371
:101520008A150A1283120317A0000A3A031DCB2A58
:101530000A30FD000030FE001E08FF001F088A155B
:101540000A1216258A150A127F0883120317A000B3
:10155000FF0000308A110A1258238A150A120A3035
:10156000FD000030FE00831203171E08FF001F0855
:101570008A110A12AA278A150A12831203179F00DA
:101580007F089E00A000FF0001308A110A12582334
:101590008A150A12DB2A0A30FF0000308A110A126B
:1015A00058238A150A120A30FF0001308A110A12E4
:1015B00058238A150A120800143083120317A10752
:1015C0000318A20A2108143A031DE92A2208003A46
:1015D000031D7D2B83120317A101A2018A110A1298
:1015E00075258A150A12831203179C007F089B0039
:1015F000143083120317A3070318A40A2308E83A38
:10160000031D7D2B2408033A031D7D2B8A110A122A
:101610007B258A150A12831203179D0004301D02D0
:1016200003187D2B0B30831203138A0020308312A2
:1016300003171D07031C1F2B831203138A0A820042
:10164000242B392B442B792B0030FF0000308A11DA
:101650000A1258238A150A120030FF0001308A113D
:101660000A1258238A150A1283120317A301A40130
:101670007D2B83120317A301A401831203171B08F8
:10168000FF001C0887227D2B0A30FD000030FE0081
:10169000831203171B08FF001C088A150A1216255F
:1016A0008A150A127F08831203179D00FF0000307D
:1016B0008A110A1258238A150A120A30FD000030D6
:1016C000FE00831203171B08FF001C088A110A1270
:1016D000AA278A150A12831203179C007F089B0011
:1016E0009D00FF0001308A110A1258238A150A1240
:1016F0007D2B83120317A301A401080000308A1177
:101700000A12E4238A150A1201308A110A12E4230C
:101710008A150A120030FF0000308A110A1258237D
:101720008A150A120030FF0001308A110A1258236C
:101730008A150A120800143083120317B907031818
:10174000BA0A3908143A031DA82B3A08003A031DB7
:10175000282C83120317B901BA0129248312031715
:10176000B600B70037080319BA2B3608013A031937
:10177000FE2B282C1430FF0000308A110A12DC25C1
:101780008A150A1283120317B600B7013608013A08
:101790000319B70A3708031DD62B3C30FF00003071
:1017A0008A110A127F258A150A12EF2B0030831244
:1017B000031737040319EF2B0A30FF0000308A119A
:1017C0000A12DC258A150A1283120317B600B70025
:1017D000FF0000308A110A127F258A150A12023092
:1017E0008A110A120F228A150A1283120317B600F1
:1017F000033A031D282C01302D24282C0130FE0033
:101800001430FF0000308A110A1297258A150A1237
:1018100002308A110A120F228A150A128312031744
:10182000B600033A031D282C00302D2400308A1501
:101830000A12D7218A150A1200308A150A126F225D
:101840008A150A1200308A110A128D258A150A1289
:101850000800831203173808080083120317B80022
:1018600008008A150A122D248A150A120800E3308E
:10187000FE000D30FF0080308A150A1259258A15A6
:101880000A1283160313E4007F08E300E530E50045
:101890000D30E600831603136308E7006408E800D0
:1018A000FF30E307031CE403670868040319CF2C27
:1018B00004306507E700E801E80D6608E8076708F7
:1018C000FE006808FF0080308A150A1259258A1523
:1018D0000A1283160313EA007F08E9006508FE0078
:1018E0006608FF0080308A150A1259258A150A12E7
:1018F00083160313EC00E8007F08EB00E7000230DA
:101900006507E700E801E80D6608E8076708FE00DC
:101910006808FF0080308A150A1259258A150A12B4
:1019200083160313E800EE007F08E700ED0083163E
:1019300003136908ED006A08EE00FF30E907031C95
:10194000EA036D086E040319C82C6B08FE006C08CE
:10195000FF0080308A150A127A258A150A1283162A
:101960000313ED00670883120313840083138316A7
:101970000313681883176D088312031380008316FE
:101980000313EB0A0319EC0AE70A0319E80A972C78
:10199000063083160313E5070318E60A4A2C8A1556
:1019A0000A12D32C08008A110A12E3268A150A1299
:1019B0008A110A123B228A150A1200308A150A126D
:1019C00031248A150A123C30FE000030FF0000303E
:1019D0008A110A1291258A150A128A150A127E2383
:1019E0008A150A1202308A150A1233218A150A1240
:1019F00000308A150A1273228A150A1200308A15DD
:101A00000A12DB218A150A1200308A110A1296275F
:101A10008A150A128A150A1226268A150A128A15AA
:101A20000A121B268A150A12142D080083120313AA
:101A3000EA007F08E9007E08EC007D08EB006C04FA
:101A4000031D262DFF30FF00FF30582D013083127B
:101A50000313ED00831203136B086C08EE00EE1BFA
:101A6000362D0310EB0DEC0DED0A2A2D00308312FC
:101A700003136D040319532D6C086A02031D422DD4
:101A80006B086902031C4C2D831203136B08E902D7
:101A90006C08031C6C0FEA02031083120313EC0C96
:101AA000EB0CED03362D831203136908FF006A085F
:101AB0000800003A0319612D803A03196B2DFF01CC
:101AC00000347E08840083137F1883170008FF000A
:101AD000840A000808008A150A128825FD00FE0FF6
:101AE000FF03FF0A8A150A128825FC007D08FF0003
:101AF0007C080800003A0319812D803A0319882DCB
:101B000000347E08840083137F18831700080800C0
:101B10007F088A007E0882000800831203131F15C5
:101B20001E0883120317C000C1010310400DC2003C
:101B3000410DC3000310C20DC30D831603131E0E07
:101B40000F3983120317C0000310C00C0310C00C20
:101B50004008C2040030C3044208FF0043080800E4
:101B6000831603139F145130831203139F0408003C
:101B7000831203178D007F088C00831603170C1542
:101B800055308D00AA308D008C1483120317C801C4
:101B9000831603178C1CCF2D83120317C80A8312D8
:101BA00003174808013A0319C52D831603170C11B2
:101BB0000800831203178D00831603170C14831279
:101BC00003170C08080006340034FD340734493488
:101BD0000134013400344F340E34103401340B34EA
:101BE0000034FE3407344A34013401340034F9340B
:101BF00007344434013404340034FF3407344B34A4
:101C00000134013400345A340E344D34013401347B
:101C10000034831603138116080083120317CC01C6
:101C2000831203130B1D172E83120317CC0A831282
:101C300003174C080800831203130B116030810056
:101C40008B168B1783160313811208008316031358
:101C500001158114011481118116080083120317E4
:101C6000BB007F08BC00BD010830BE008312031713
:101C70003B1C3C2E3C08BD07831203173B08BF00EA
:101C800003103F0CBB0003103C0DBF00BC003E0323
:101C9000BF00BE003F08031D362E3D0808003F343C
:101CA00006345B344F3466346D347D3407347F340E
:061CB0006F340034003423
:02400E003A3F37
:00000001FF
